:020000040800F2
:10000000380400209D010008CB0D0008850C000875
:10001000C90D0008D50200084D10000800000000BE
:10002000000000000000000000000000CF0D0008EC
:10003000D903000800000000CD0D0008710F000872
:10004000B7010008B7010008B7010008B7010008B0
:10005000B7010008B7010008B7010008B7010008A0
:1000600009040008B7010008B7010008B70100083B
:10007000B7010008B7010008B7010008B701000880
:10008000B7010008B7010008B7010008B701000870
:10009000B7010008B7010008B7010008B701000860
:1000A000B7010008B7010008B7010008B701000850
:1000B000B7010008B7010008B7010008B701000840
:1000C000B7010008B7010008B7010008B701000830
:1000D000B7010008B7010008B7010008B701000820
:1000E000F1030008B7010008B7010008B7010008D4
:1000F000B7010008B7010008B7010008B701000800
:10010000B7010008B7010008B7010008B7010008EF
:10011000B7010008B7010008B7010008B7010008DF
:10012000B7010008B7010008B7010008B7010008CF
:10013000B7010008B7010008B7010008B7010008BF
:10014000B7010008B7010008B7010008B7010008AF
:10015000B7010008B7010008B7010008B70100089F
:10016000B7010008B7010008B7010008B70100088F
:10017000B7010008B7010008B7010008000000003F
:10018000B7010008B7010008DFF80CD000F090F8C4
:10019000004800471D140008380400200648804726
:1001A00006480047FEE7FEE7FEE7FEE7FEE7FEE75C
:1001B000FEE7FEE7FEE7FEE7E50F0008890100081D
:1001C0002DE9F05F0546002092469B46884606468C
:1001D000814640241BE0284641464746224600F01F
:1001E00057F853465A46C01A914110D31146184643
:1001F000224600F03EF82D1A67EB01084F462246D2
:100200000120002100F035F817EB00094E41201EB7
:10021000A4F10104DFDC484631462A464346BDE8E6
:10022000F09FD2B201E000F8012B491EFBD27047CB
:100230000022F6E710B513460A4604461946FFF7B2
:10024000F0FF204610BD30B50B46014600202022AD
:10025000012409E021FA02F59D4205D303FA02F5D3
:10026000491B04FA02F52844151EA2F10102F1DC33
:1002700030BD202A04DB203A00FA02F1002070474A
:100280009140C2F1200320FA03F3194390407047D4
:10029000202A04DB203A21FA02F00021704721FADB
:1002A00002F3D040C2F12002914008431946704742
:1002B000064C074D06E0E06840F0010394E80700B3
:1002C00098471034AC42F6D3FFF762FF941400084D
:1002D000B4140008FEE700002DE9F05F06462E4842
:1002E0002B4C002502682D4894F800C004270168B3
:1002F000DFF8A0B00A23881A4FF002094FF0010A74
:10030000BCF1050F12D2DFE80CF0060C1B31030024
:1003100000F09CFD39E084F800A0142500F0CEFD2B
:1003200033E0032E02D0012E02D02EE027702CE005
:100330008A4224DC29DA4FF003012170054624E0CB
:10034000032EF3D01648174900680968401AB0FB1D
:10035000F3F115A000F07CFE022E16D184F800A067
:1003600000F0ACFD14A000F073FE0EE090FBF3F182
:1003700014A000F06DFE032ED8D0022E05D184F813
:100380000090DBF8005000F023FD2846BDE8F09F08
:100390000500002020000020140000201C00002088
:1003A0000C000020080000200957414C4B3A202542
:1003B000326420730A00000054494D45204F5554C3
:1003C0000A00000009444F4E542057414C4B3A203C
:1003D00025326420730A000070470000034A116848
:1003E00013685B1A8342FBD37047000008000020AB
:1003F00010B54FF4004000F02FF8024901200860CA
:1004000010BD00000000002010B5042000F024F80A
:1004100001490120086010BD0000002010B50A4904
:10042000002420460A680AB10224086007490A68C5
:100430000AB1012408602021054800F0F1F80128E4
:1004400000D10324204610BD100000200000002031
:100450000010024070470000044910B50A680242CB
:1004600002D00860FFF7F6FF10BD0000143C014009
:100470002DE9F84FDFF87CB100224FF001084FF072
:10048000030A4FF00F090BF1040E00BF0B6808FAC6
:1004900002F42340A3426ED14D68022D01D0122DEB
:1004A0000ED1D50800EB850CDCF820505607F70E6E
:1004B00009FA07F6B5430E69BE402E43CCF820601A
:1004C000066855000F790AFA05FC07F0030726EACB
:1004D0000C06AF40374307604E68012E05D0022E50
:1004E00003D0112E01D0122E0ED18668CF6826EAD5
:1004F0000C06AF40374387604668A6430C79C4F3C7
:100500000014944034434460C6688C6826EA0C06A4
:10051000AC403443C4604C68E40065D5364C256873
:1005200045F480452560246822F0030504F48044E6
:100530000094324C2E19D6F8084895072F0F09FA67
:1005400007F5AC432E4DA84201D1002524E02D4DE6
:10055000A84201D101251FE02B4DA84201D102255F
:100560001AE02A4DA84201D1032515E0284DA842E2
:1005700002D1042510E037E0264DA84201D105251F
:100580000AE0254DA84201D1062505E0234DA842E9
:1005900001D1072500E00825BD402543C6F80858CD
:1005A000DBF800405D464E689C43F60300D51C43D3
:1005B0002C60DEF8004075464E689C43B60300D5BB
:1005C0001C432C600B4D08352C684E689C43F6028A
:1005D00000D51C432C60074D0C352C684E689C439D
:1005E000B60200D51C432C60521C102AFFF44EAFFB
:1005F000BDE8F88F003C0140443802400030014023
:10060000000002400004024000080240000C0240CA
:10061000001002400014024000180240001C02407A
:100620000069084000D0012070470AB1816170471D
:100630000904FBE70148806870470000240000209F
:100640000F4864220169491C91FBF2F302FB13116C
:10065000016100290FD10168491C016001684268ED
:10066000914201D1012181600649097821B1022915
:1006700001D10021C1607047C168491CFAE7000040
:1006800008000020040000200B4810B5016841F468
:1006900000710160016841F480610160016841F40A
:1006A00080710160032000F06FF8002000F006F870
:1006B00000F024F8002010BD003C024070B50D4D44
:1006C00004464FF47A712878B1FBF0F00A490968C2
:1006D000B1FBF0F000F0C2FA48B9102C07D20022AA
:1006E0002146501E00F030F800206C6070BD0120E3
:1006F00070BD000024000020300000200A4808B52A
:10070000016841F480410160006800F4804000907D
:100710000548001F016841F080510160006800F049
:100720008050009008BD000044380240002809DBDA
:1007300000F01F02012191404009800000F1E020FB
:10074000C0F8001170470000F0B40E4B1B680C4657
:10075000C3F30223C3F10705042D00D90425191D95
:10076000072901D2002300E0DB1E012606FA05F16D
:10077000491E214099409E40761E16403143F0BCF0
:1007800000F076BC0CED00E0064900F007020868B6
:100790004FF6FF03184040EA0220034A1043086066
:1007A000704700000CED00E00000FA052DE9F0476D
:1007B0000E46050065D0DFF81481D8F80000F7B2C6
:1007C00000F00F00B04207D288F80070D8F800009F
:1007D00000F00F00B04254D128683D4C810712D57B
:1007E000400703D5206840F4E050206028780007D7
:1007F00003D5206840F4604020602068A96820F09C
:10080000F000084320602878C0072DD03049686880
:100810000839012812D0022813D0032811D0096802
:10082000890700292DDA216821F0030101432160A5
:10083000FFF700FF814641F2883A0EE0096889031C
:10084000EFE709688901ECE7FFF7F4FEA0EB090187
:10085000514502D90320BDE8F0872068696800F09F
:100860000C00B0EB810FEFD1D8F80010404601F03A
:100870000F01B14207D90770006800F00F00B042C5
:1008800001D00120E7E72878400705D52068E9680E
:1008900020F4E050084320602878000706D520683F
:1008A000296920F4604040EAC100206000F016F899
:1008B0002168084AC1F30311515CC8400649086029
:1008C0000020FFF7FBFE0020C5E70000003C0240CF
:1008D000083802408414000830000020154810B584
:1008E000006810F00C02144813D01449042A0FD0E9
:1008F000082A0ED10F4C241F2268236802F03F0201
:100900005B0207D52068C0F38810A0FB010106E058
:10091000084610BD2168C1F38811A1FB0001002326
:10092000FFF74EFC2168C1F30141491C4900B0FBAF
:10093000F1F010BD083802400024F40040787D0139
:100940002DE9F84F050076D02878DFF8F8B2BE4CD4
:10095000C00749D0DBF800105846C1F381010129D6
:1009600008D00068C0F3810002280AD1201D006869
:10097000400206D52068800336D568680028E2D09A
:1009800032E06868B0F5803F10D0B0F5A02F206845
:1009900010D020F480302060206820F48020206077
:1009A0006868A0B1FFF746FE06460CE0206840F4F8
:1009B0008030F4E740F480202060F7E7FFF73AFE4C
:1009C000801B642873D820688003F7D50CE0FFF7FC
:1009D00031FE064605E000BFFFF72CFE801B6428B1
:1009E000F0D820688003F7D42878DFF86082800789
:1009F0004FF000093ED5DBF80010584611F00C0FFF
:100A000009D00068C0F3810002280BD18D48001F77
:100A10000068400206D42068800715D5E8680128E0
:100A200009D111E0E868B8B10120C8F80000FFF76B
:100A300001FE064605E002E1FFF7FCFD801B0228EF
:100A4000C0D820688007F7D52068296920F0F80011
:100A500040EAC10020600DE0C8F80090FFF7EAFD11
:100A6000064604E0FFF7E6FD801B02281FD8206839
:100A70008007F7D42878000722D5724E7448696938
:100A80006C3671B101210160FFF7D4FD074604E027
:100A9000FFF7D0FDC01B022809D830688007F7D5C2
:100AA0000EE0C0F80090FFF7C5FD074605E083E0C3
:100AB000FFF7C0FDC01B02287ED830688007F7D43E
:100AC0002878400768D5DFF87CA100270AF1380AAA
:100AD000DAF80000C0000BD4DAF8001041F08051C1
:100AE000CAF80010DAF80000012700F080500090EA
:100AF000584E3068C00510D4306840F480703060C3
:100B0000FFF798FD009005E0FFF794FD0099401A6B
:100B1000022851D83068C005F6D54A4EA868683614
:100B200001280FD00528306810D020F00100306077
:100B3000306820F004003060A868B8B1FFF77AFD93
:100B400000900FE0306840F00100F4E740F004004E
:100B50003060F7E7FFF76EFD0099411A41F28830E7
:100B6000814264D830688007F4D50EE0FFF762FD5B
:100B7000009007E0FFF75EFD0099411A41F28830CE
:100B8000814254D830688007F4D42FB1DAF80010CD
:100B900021F08051CAF80010A869C0B3DBF800103A
:100BA000C1F3810102294AD00228484607D0C8F87B
:100BB0006000FFF73FFD00E039E005463AE04746B8
:100BC000C8F86000FFF736FD064604E0FFF732FD87
:100BD000801B02282BD820688001F7D4D5E90701B3
:100BE0000843A96A1C4A490802EB01416A6A41EAC2
:100BF0008211084395F82C1040EA01611148001F4A
:100C0000016001203866FFF715FD054605E014E098
:100C1000FFF710FD401B022809D820688001F7D596
:100C20000BE000BFFFF706FD401B022802D903209E
:100C3000BDE8F88F20688001F4D40020F8E7012097
:100C4000F6E7000008380240003802400000474242
:100C5000800E4742007000400000FFFF10B5401EAC
:100C6000B0F1807F01D3012010BD4FF0E02460611E
:100C70000F21601700F0FCF90020A061072020611F
:100C8000002010BDFEE700002DE9F04786B01421DA
:100C90006846FFF7CDFA45480024016841F010018D
:100CA0000160016801F010010591016841F0040143
:100CB0000160016801F004010591016841F0020141
:100CC0000160016801F002010591016841F008012D
:100CD0000160016801F008010591016841F001011E
:100CE00001600068DFF8C88000F001000590002274
:100CF00014214046FFF799FCDFF8B8904FF4804686
:100D0000002231464846FFF790FCDFF8ACA04FF4D4
:100D10004057002239465046FFF787FC3820CDE97E
:100D20000004694625480294FFF7A2FB14200090B6
:100D30000125CDE90154694640460394FFF798FB2D
:100D4000042000901E48CDE9010469464846FFF79B
:100D50008FFB0096CDE90154694648460394FFF79E
:100D600087FBE80300901748CDE90104694648462F
:100D7000FFF77EFB0097CDE9015469465046039486
:100D8000FFF776FB002211460820FFF7DDFC082064
:100D9000FFF7CCFC002211462820FFF7D5FC2820C5
:100DA000FFF7C4FC06B0BDE8F08700003038024011
:100DB0000008024000040240000C02400010024003
:100DC0000000211000001110FEE7704770477047C7
:100DD00010B51A4C002210212046FFF726FC0520F2
:100DE000FFF7FCFA012204212046FFF71EFC0A202F
:100DF000FFF7F4FA002204212046FFF716FC052035
:100E0000FFF7ECFA012291030D48FFF70EFC0220D8
:100E1000FFF7E4FA0B4C00224FF400512046FFF795
:100E200004FC0520FFF7DAFA012211032046FFF740
:100E3000FCFB05490220087010BD000000080240BC
:100E400000040240000C02400400002070B50022A3
:100E50004FF480411648FFF7E8FB164C00221021A2
:100E60002046FFF7E2FB144D0022A1142846FFF7AD
:100E7000DCFB002204212046FFF7D7FB4FF400568D
:100E8000002231462846FFF7D0FB0A20FFF7A6FADA
:100E9000012204212046FFF7C8FB012231462846E3
:100EA000FFF7C3FBBDE870400A20FFF797BA0000C8
:100EB0000004024000080240000C024070B5284DBA
:100EC0004FF48054002221462846FFF7AEFB0F2046
:100ED000FFF784FA012221462846FFF7A6FB0F20E0
:100EE000FFF77CFA002221462846FFF79EFB0F20E1
:100EF000FFF774FA012221462846FFF796FB0F20E0
:100F0000FFF76CFA002221462846FFF78EFB0F20E0
:100F1000FFF764FA012221462846FFF786FB0F20DF
:100F2000FFF75CFA002221462846FFF77EFB0122EC
:100F300051032846FFF779FB0220FFF74FFA002202
:100F4000A1000848FFF771FB0520FFF747FA0122CF
:100F500010210548FFF769FB04490020087070BDA7
:100F6000000C02400004024000080240040000207F
:100F7000FFF766BB10B592B030216846FFF758F90D
:100F800014210CA8FFF754F914480024016841F01B
:100F900080510160006800F0805011901048016895
:100FA00041F4804101600068069400F48040119093
:100FB0000220009001200390102004906846FFF763
:100FC000BFFC0F20CDE90C040E940F9400210CA857
:100FD0001094FFF7EBFB12B010BD00004038024048
:100FE000007000401048016841F4700101600F4832
:100FF000016841F0010101600C4A002108321160D2
:1010000002680B4B1A400260031D0A4A1A6002680C
:1010100022F48022026005480C3001600249580623
:10102000803908607047000088ED00E00038024019
:10103000FFFFF6FE10300024002803D002490A68A2
:10104000104448607047000008000020FEE70000E0
:101050000FB4054B10B503A9044A029800F028F814
:1010600010BC5DF814FB0000F513000834000020EC
:101070000907090E002804DB00F1E02080F80014C5
:10108000704700F00F0000F1E02080F8141D704759
:1010900002E008C8121F08C1002AFAD17047704741
:1010A000002001E001C1121F002AFBD1704700009F
:1010B0002DE9FF4F8BB088460546002606E025281F
:1010C0000BD0DDE90D1290476D1C761C28780028A6
:1010D000F5D10FB03046BDE8F08F0024A146A246FE
:1010E0000122AE4900E0044315F8013F203B02FA1B
:1010F00003F00842F7D128782A2810D06FF02F0289
:101100002878A0F13001092915D809EB890102EBF3
:10111000410144F0020400EB01096D1CF0E758F8AE
:10112000041B5FEA010903D544F40054C9F1000926
:1011300044F002046D1C28782E2817D115F8010FF1
:1011400044F004042A280ED06FF02F022878A0F172
:10115000300109290AD80AEB8A0102EB410100EBB0
:10116000010A6D1CF2E758F804AB6D1C28786C2856
:101170000FD006DC4C2817D068280DD06A2814D16F
:1011800004E0742810D07A280FD10DE044F4001444
:101190000AE044F4801401E044F440146978814288
:1011A00002D104F580146D1C6D1C2878692865D067
:1011B00006DC00288DD0632827D0642806D15DE0A6
:1011C0006E2808D073282AD0752877D0DDE90D1253
:1011D0009047761CE0E0C4F30250022809D00328AF
:1011E0000DD0D8F8001004280DD00E6008F10408C6
:1011F000D2E0D8F80010F217C1E90062F6E7D8F89B
:1012000000100E80F2E70E70F0E718F8041B8DF85E
:10121000001000208DF80100EB46012003E058F893
:1012200004BB4FF0FF3061074FF0000701D40AE024
:101230007F1C57450DDA8742FADB1BF8071000299F
:10124000F6D106E07F1C8742FCDB1BF80710002963
:10125000F8D1DDE90D23A9EB07008146214600F016
:10126000B1F83044C61904E0DDE90D121BF8010B9A
:1012700090477F1EF8D22146484688E058F8040B74
:10128000C4F302514FF00A0B032900D100B2042924
:1012900000D140B2002802DA40422D2102E02105AF
:1012A00005D52B218DF82410012104E006E0E1078B
:1012B00010D02021F6E708AF089113E058F8040B8E
:1012C000C4F302514FF00A0B032900D180B2042964
:1012D00000D1C0B20021EEE75946FEF7B4FF30312D
:1012E00007F8011D0028F7D1ADEB070000F1200B36
:1012F000600702D524F4803401E04FF0010ADA459A
:1013000002DDAAEB0B0000E00020824600EB0B019F
:1013100008980144A9EB01000A90E00306D4DDE936
:101320000D2321460A9800F04DF806444FF00009BD
:1013300008E009A911F80900DDE90D12904709F14B
:101340000109761C08998945F3DBE0030CD5DDE93A
:101350000D2321460A9800F035F8064404E0DDE943
:101360000D1230209047761CBAF10001AAF1010A53
:10137000F5DC05E0DDE90D1217F8010B9047761C4E
:10138000BBF10001ABF1010BF4DC0A982146DDE969
:101390000D2300F005F806446D1C97E609280100AE
:1013A0002DE9F041044600251E461746880404D462
:1013B00005E039462020B0476D1C641EF9D528464B
:1013C000BDE8F0812DE9F041044600251E46904617
:1013D000C80301D5302700E02027880404D505E0A4
:1013E00041463846B0476D1C641EF9D52846BDE815
:1013F000F081000008490968C90706D0064980390C
:101400000968CA074FF0604101D1704700BF0A6800
:10141000002AFBD008707047800E00E0FFF734F917
:10142000FFF7A8FDFFF730FC134C144D144E4FF49A
:1014300016774FF496684FF4805900BFFEF7EEFF21
:10144000FEF74AFFFFF7F8FD08212046FFF7E8F80E
:1014500001280DD04046286049462046FFF7E0F8B5
:10146000012807D0C82030600120FEF7B7FFE5E76C
:101470003846F0E76420F6E7001002401C00002028
:101480002000002000000000000000000102030412
:1014900006070809B4140008000000203800000006
:1014A00090100008EC140008380000200004000030
:1014B000A010000800000000020000000000000072
:1014C000000000000000000000000000000000001C
:1014D00000000000000000000100000010000000FB
:0C14E000000000000024F40000000000E8
:040000050800018965
:00000001FF
