:020000040800F2
:10000000880500209D0100087D230008812000084C
:10001000112300083D090008ED2C00080000000035
:10002000000000000000000000000000A9230008FC
:10003000710A0008000000007F2300084124000826
:10004000B7010008B7010008B7010008B7010008B0
:10005000B7010008B7010008B7010008B7010008A0
:10006000750A0008B7010008B7010008B7010008C9
:10007000B7010008B7010008B7010008B701000880
:10008000B7010008B7010008B7010008B701000870
:10009000B7010008B7010008B7010008B701000860
:1000A000B7010008B7010008B7010008B701000850
:1000B00021250008B701000861250008B7010008E4
:1000C000B7010008B7010008B7010008B701000830
:1000D000B7010008B7010008B7010008D12C0008DB
:1000E000B7010008B7010008B7010008B701000810
:1000F000B7010008B7010008B7010008B701000800
:10010000B7010008B7010008B7010008B7010008EF
:10011000B7010008B7010008B7010008B7010008DF
:10012000B7010008B7010008B7010008B7010008CF
:10013000B7010008B7010008B7010008B7010008BF
:10014000B7010008B7010008B7010008B7010008AF
:10015000B7010008B7010008B7010008B70100089F
:10016000B7010008B7010008B7010008B70100088F
:10017000B7010008B7010008B7010008000000003F
:10018000B7010008B7010008DFF80CD000F080F9D3
:10019000004800472D2D00088805002006488047AC
:1001A00006480047FEE7FEE7FEE7FEE7FEE7FEE75C
:1001B000FEE7FEE7FEE7FEE7CD2400088901000820
:1001C0002DE9F05F0546002092469B46884606468C
:1001D000814640241BE0284641464746224600F01F
:1001E00004F953465A46C01A914110D31146184695
:1001F000224600F0EBF82D1A67EB01084F46224625
:100200000120002100F0E2F817EB00094E41201E0A
:10021000A4F10104DFDC484631462A464346BDE8E6
:10022000F09FD2B201E000F8012B491EFBD27047CB
:100230000022F6E710B513460A4604461946FFF7B2
:10024000F0FF204610BD00000FB400B58DB010A91E
:1002500009900B9000914FF0FF300A9000200C9015
:1002600005480690054807906A4609A80F9900F0CE
:10027000E1F80DB05DF814FB510400086F040008AC
:100280002DE9FF5F1D464FF0FF3BD5E90146914642
:100290005F464FF00008A9697F1C01988847296ACA
:1002A000824688470028F6D1BAF1FF3F0CD024F4EB
:1002B000C064002E19DD600614D5BAF12B0F09D0E9
:1002C000BAF12D0F0ED103E0584604B0BDE8F09FFF
:1002D00044F48064A9697F1C01988847761E824691
:1002E000002E02DDBAF1300F03D0B9F1000F26D095
:1002F00032E0A969761E44F400747F1C0198884797
:100300008246002E05DDBAF1780F06D0BAF1580FFB
:1003100003D0B9F1000F10D01EE0B9F1000F02D0E8
:10032000B9F1100F18D1A969761E24F400747F1C4E
:10033000019888478246102002E0082000E00A2049
:10034000814609E008FB0908A969761E44F4007497
:100350007F1C019888478246002E05DD494650469D
:1003600000F053F80028EDDAE96901988847A00504
:1003700002D46FF00100A8E7E00725D1600613D58D
:10038000600502D5C8F1000000E0404629680A1D5A
:100390002A600968220501D5087015E0220701D5F9
:1003A000088011E008600FE02868011D29600068DE
:1003B000210502D580F8008006E0210702D5A0F8CB
:1003C000008001E0C0F8008038467EE7202A04DB88
:1003D000203A00FA02F1002070479140C2F1200358
:1003E00020FA03F3194390407047202A04DB203A97
:1003F00021FA02F00021704721FA02F3D040C2F145
:10040000200291400843194670473A2800D23038FC
:1004100020F02002412A01D3A2F13700884201D303
:100420004FF0FF30704700000268114413780160FC
:1004300018467047D1600449516104491162002196
:100440001161114600F03CB829040008B504000809
:10045000426842B1016811F8013B23B1521EC0E964
:100460000012184670470121C160881E704742681B
:100470005AB1C368016843B983688B4205D0491EED
:10048000521CC0E90012002070474FF0FF30704747
:10049000064C074D06E0E06840F0010394E80700D1
:1004A00098471034AC42F6D3FFF772FE142E0008C2
:1004B000342E0008C0B24FF4F05100F097B900009C
:1004C0002DE9F34F8BB04FF0000801F10C000C4602
:1004D0004FF0010B46460DF1080A019062690121B7
:1004E00001989047051E2DD0252D2CD0216A8847D4
:1004F000C0B16269012101989047216A88470028AC
:10050000F7D1411E62690198904700E0761CA1690D
:100510000B988847216A88470028F7D1E1690B9832
:100520008847DBE7A1690B9888470746A84201D1B5
:10053000761CD3E7E1690B9888477F1C02D1B8F19C
:10054000000F6FD046E1002762693D4639460198A9
:1005500090472A2804D1626901210198904701251A
:10056000DFF884926269012101989047A0F130017F
:100570000A290AD24F45E5DC07EB870100EB41076A
:10058000303FDFD445F01005ECE7E90601D46FF009
:1005900000476C280AD04C2814D0682815D06A2847
:1005A0000DD074281CD07A281AD01DE06269012170
:1005B000019890476C2802D045F0040514E045F0FE
:1005C00002050DE045F020050AE06269012101986D
:1005D0009047682802D045F0080505E045F400651D
:1005E0006269012101989047C4E9015765283DD00F
:1005F00019DC58287AD00CDC452837D004DC2528B3
:1006000026D0412831D131E046282FD047282CD19F
:100610002CE05B2877D0612828D063287CD0642820
:1006200023D15AE0D0E06F2848D008DC66281DD0DE
:1006300067281BD0692821D06E2816D127E07028A2
:1006400045D0732868D0752847D078280DD14DE063
:10065000A1690B988847054625283FF469AFE169F1
:100660000B9888476D1C3FF46AAFB3E023466A4697
:100670006FF001000B99AFF300809EE045F0400061
:100680006060A80723464FF0000236D43EE0E8073A
:100690007FF447AF2068011D21600068290501D55E
:1006A00006701BE7290701D5068017E7A90703D5C0
:1006B000F117C0E9006111E706600FE745F040005F
:1006C0006060A80723464FF0080216D41EE040F6EB
:1006D0000E0125EA0100606016E045F04000606010
:1006E000A80723464FF00A0207D40FE045F0400068
:1006F0006060A80708D5234610226FF001000B990F
:10070000AFF3008059E007E0234610226FF00100AC
:100710000B99FFF7B5FD50E04FF000094F464B46EF
:10072000632802D05B2806D040E0E80601D401200F
:10073000A06001273AE062690121019890475E2894
:1007400005D14FF001096269494601989047216936
:1007500039B900210A46534643F82120491C08298B
:10076000FADBB0B3216969B9C11700EBD16253114B
:100770000AEB830122F01F02821A01200B689040CD
:1007800003430B6062690121019890475D28E8D11D
:10079000B9F1000F09D00020514651F82020D24372
:1007A00041F82020401C0828F7DB02AB22460097C6
:1007B0006FF001000B99AFF3008000280CDA401CA9
:1007C00008D1BBF1000F05D04FF0FF300DB0BDE8F0
:1007D000F08FFFE74046F9E7E90701D108F101088A
:1007E00006444FF0000B79E6CCCCCC0C7F2801D925
:1007F000002208E0064A02EB5002C007127800D13E
:10080000120902F00F0201209040084070470000DA
:10081000D42D0008464910B54A6822F440324A6097
:100820004A6843681A434A6001684A6822F4807241
:100830004A6001684A68036942EA03224A60016823
:100840004A6822F040724A6001684A6883681A4325
:100850004A6001688A6822F400628A6001688A68D6
:10086000C3681A438A60816A6FF07062D14201687E
:100870008A6822F070628A6001688A680CD0836A94
:100880001A438A6001688A6822F040528A600168CF
:100890008A68C36A1A4301E022F040528A60016804
:1008A0008A6822F002028A6001688A68037E42EA4E
:1008B00043028A6090F82010002901684A680FD02E
:1008C00042F400624A6001684A6822F460424A6069
:1008D00001684A68174C436A04EB43331A4301E04A
:1008E00022F400624A600168CA6A22F47002CA6295
:1008F0000168CA6A838B104C04EB03531A43CA6223
:1009000001688A6822F400728A6001688A6890F837
:10091000303042EA43228A6001688A6822F48062A9
:100920008A6001688A68406942EA8020886010BD58
:100930000023014000E0FFFF0000F0FFFEE70000A1
:1009400070B5154C15490025227812B1012A20D125
:1009500007E0212801D03F2815D10122227008701C
:1009600010E0A0F14102192A09D91132092A06D949
:100970002D2804D0202802D00A2805D009E062687A
:100980008854521C626070BD60680D54034800F0CA
:1009900007F8257070BD00000C0000203400002016
:1009A00008B56A4604A1FFF74FFC002802DD0449A0
:1009B0000098086008BD000021504F5320256400B6
:1009C0001400002070B51749174A184B0D781268AB
:1009D00000242DB1012D1AD0022D00D00C7070BD55
:1009E0000128FCD1002AFAD008701C604C6001F08C
:1009F000DDFC0F49086000210E4801F0F3F90D48B5
:100A000000684463BDE870400B4800F01FBF1868E1
:100A10009042E4D10C70084800F029FFBDE8704016
:100A200001F0AEBC000000201400002018000020DF
:100A30002000002088000020080100200848094903
:100A4000094B026848681B68101A181A8B6818440A
:100A5000886006490968914201D001F05BBC70478B
:100A600018000020000000202000002014000020BA
:100A70007047000010B5042000F0F8F9014901208A
:100A8000086010BD1C00002078B50024009490F888
:100A90003C20012A19D0012280F83C200A68072353
:100AA0000568092A13D9EE680A3A02EB420293401C
:100AB0009E43EE600B788A680A3B03EB43039A403F
:100AC0000368DD682A43DA6010E0022078BD2E69F1
:100AD00002EB420293409E432E610B788A6803EB3F
:100AE00043039A4003681D692A431A614A681F2319
:100AF000072A13D205686E6B521E02EB82029340E6
:100B00009E436E630B790A885B1E92B203EB8303EC
:100B10009A4003685D6B2A435A6327E005680D2AF3
:100B200012D22E6BD21F02EB820293409E432E63A1
:100B30000B790A88DB1F92B203EB83039A400368A8
:100B40001D6B2A431A6311E0EE6A0D3A02EB820232
:100B500093409E43EE620B790A880D3B92B203EB01
:100B600083039A400368DD6A2A43DA62164B0568FC
:100B7000144A9D4206D10D68122D03D1556845F4E3
:100B80008005556005689D4218D10B68102B01D077
:100B9000112B13D1536843F40003536009681029E3
:100BA0000CD10A490A4A0968B1FBF2F101EB810153
:100BB000490000E0491E00910029FBD180F83C402B
:100BC000002078BD002301400020014030000020BB
:100BD00040420F000068C06C704770B504004FF0D1
:100BE000000503D0206C002610B107E0012070BD85
:100BF000204600F01DF8666484F83C60206CC00656
:100C000010D4206C20F4885040F00200206420466C
:100C1000FFF700FE6664206C20F0020040F0010047
:100C2000206400E0012584F83C60284670BD000087
:100C300010B586B0044614216846FFF7F9FA114949
:100C4000206888421CD110480021026842F480725A
:100C50000260006800F4807005900B481438026848
:100C600042F002020260006800F0020005900120DC
:100C700000900320CDE901016946044800F002F923
:100C800006B010BD0020014044380240000402407C
:100C90002DE9F041044600680D4681684FF00007D9
:100CA00049050BD58068C00508D5206C40F02000B0
:100CB000206484F83C700120BDE8F08100F0C0F9A8
:100CC00006460FE0681C0DD025B100F0B9F9801B75
:100CD000A84207D9206C40F00400206484F83C70DE
:100CE0000320E9E7206800688007EBD521686FF0F2
:100CF00012000860206C40F4007020642068816855
:100D000011F0405F13D1217E89B9C16A11F4700FCF
:100D100002D0806840050AD4206C20F480702064E2
:100D2000206CC00403D4206C40F00100206400203B
:100D3000C2E7000018B50021009190F83C20012A7C
:100D400007D0012280F83C2002689368DB0702D0BC
:100D500011E0022018BD936843F0010393602A4A12
:100D60002A4B1268B2FBF3F202EB420200E0521E81
:100D70000092002AFBD102689368DB0741D0036C24
:100D800040F20164A34343F48073036453685B053A
:100D900005D5036C23F4005343F480530364036CC0
:100DA000DB0404D5436C23F00603436400E0416494
:100DB00080F83C1016496FF0220313604968006800
:100DC000CA06144906D088421BD1816811F0405FE1
:100DD00013D016E08842F8D00F4A904203D1D1F8E0
:100DE0000423D206F1D00D4A90420AD1D1F804135F
:100DF00001F01F011029E8D303E0816841F0804130
:100E00008160002018BD00003000002040420F002B
:100E10000023014000200140002101400022014048
:100E200090F83510022903D08021416501207047D8
:100E3000052180F835100068016821F0010101608A
:100E40000020704770B5044600F0FAF80546601CB3
:100E500002D004480078044400F0F2F8401BA0429D
:100E6000FAD370BD2400002070470000044910B57B
:100E70000A68024202D00860FFF7F6FF10BD0000CA
:100E8000143C01402DE9F84FDFF87CB100224FF00F
:100E900001084FF0030A4FF00F090BF1040E00BFD9
:100EA0000B6808FA02F42340A3426ED14D68022D6C
:100EB00001D0122D0ED1D50800EB850CDCF82050A6
:100EC0005607F70E09FA07F6B5430E69BE402E43E2
:100ED000CCF82060066855000F790AFA05FC07F087
:100EE000030726EA0C06AF40374307604E68012E21
:100EF00005D0022E03D0112E01D0122E0ED18668FD
:100F0000CF6826EA0C06AF40374387604668A643A1
:100F10000C79C4F30014944034434460C6688C6870
:100F200026EA0C06AC403443C4604C68E40065D546
:100F3000364C256845F480452560246822F0030579
:100F400004F480440094324C2E19D6F808489507D2
:100F50002F0F09FA07F5AC432E4DA84201D1002509
:100F600024E02D4DA84201D101251FE02B4DA842C0
:100F700001D102251AE02A4DA84201D1032515E02E
:100F8000284DA84202D1042510E037E0264DA842A2
:100F900001D105250AE0254DA84201D1062505E02D
:100FA000234DA84201D1072500E00825BD40254377
:100FB000C6F80858DBF800405D464E689C43F603CF
:100FC00000D51C432C60DEF8004075464E689C43FB
:100FD000B60300D51C432C600B4D08352C684E68B9
:100FE0009C43F60200D51C432C60074D0C352C6841
:100FF0004E689C43B60200D51C432C60521C102A3C
:10100000FFF44EAFBDE8F88F003C01404438024089
:10101000003001400000024000040240000802408D
:10102000000C024000100240001402400018024070
:10103000001C02400AB1816170470904FBE700000F
:101040000148806870470000240000200248816841
:101050000278114481607047240000200B4810B5CD
:10106000016841F400710160016841F48061016030
:10107000016841F480710160032000F06FF80020E6
:1010800000F006F800F024F8002010BD003C0240FB
:1010900070B50D4D04464FF47A712878B1FBF0F02D
:1010A0000A490968B1FBF0F000F0E2FA48B9102CE7
:1010B00007D200222146501E00F030F800206C605C
:1010C00070BD012070BD0000240000203000002011
:1010D0000A4808B5016841F480410160006800F4E5
:1010E000804000900548001F016841F08051016078
:1010F000006800F08050009008BD000044380240B5
:10110000002809DB00F01F02012191404009800006
:1011100000F1E020C0F8001170470000F0B40E4B61
:101120001B680C46C3F30223C3F10705042D00D945
:101130000425191D072901D2002300E0DB1E01262A
:1011400006FA05F1491E214099409E40761E164040
:101150003143F0BC01F0CBBD0CED00E0064900F0DE
:10116000070208684FF6FF03184040EA0220034ACE
:1011700010430860704700000CED00E00000FA0525
:101180002DE9F0470E46050065D0DFF81481D8F848
:101190000000F7B200F00F00B04207D288F80070EC
:1011A000D8F8000000F00F00B04254D128683D4C40
:1011B000810712D5400703D5206840F4E050206035
:1011C0002878000703D5206840F46040206020683C
:1011D000A96820F0F000084320602878C0072DD0CF
:1011E000304968680839012812D0022813D0032832
:1011F00011D00968890700292DDA216821F003013F
:1012000001432160FFF71CFF814641F2883A0EE05E
:1012100009688903EFE709688901ECE7FFF710FF28
:10122000A0EB0901514502D90320BDE8F0872068F1
:10123000696800F00C00B0EB810FEFD1D8F8001016
:10124000404601F00F01B14207D90770006800F075
:101250000F00B04201D00120E7E72878400705D50C
:101260002068E96820F4E0500843206028780007EF
:1012700006D52068296920F4604040EAC10020605A
:1012800000F036F82168084AC1F30311515CC840E8
:10129000064908600020FFF7FBFE0020C5E70000BC
:1012A000003C024008380240BC2D000830000020FD
:1012B0000448054900680968044AC1F38221515C69
:1012C000C84070473000002008380240CC2D00088C
:1012D0000448054900680968044AC1F34231515C79
:1012E000C84070473000002008380240CC2D00086C
:1012F000154810B5006810F00C02144813D01449BA
:10130000042A0FD0082A0ED10F4C241F226823680C
:1013100002F03F025B0207D52068C0F38810A0FBF3
:10132000010106E0084610BD2168C1F38811A1FB48
:1013300000010023FEF744FF2168C1F30141491C6D
:101340004900B0FBF1F010BD083802400024F40061
:1013500040787D012DE9F84F050076D02878DFF838
:10136000F8B2BE4CC00749D0DBF800105846C1F3B4
:101370008101012908D00068C0F3810002280AD148
:10138000201D0068400206D52068800336D56868B5
:101390000028E2D032E06868B0F5803F10D0B0F5A8
:1013A000A02F206810D020F480302060206820F426
:1013B000802020606868A0B1FFF742FE06460CE07E
:1013C000206840F48030F4E740F480202060F7E7A4
:1013D000FFF736FE801B642873D820688003F7D59A
:1013E0000CE0FFF72DFE064605E000BFFFF728FEE4
:1013F000801B6428F0D820688003F7D42878DFF8B1
:10140000608280074FF000093ED5DBF80010584697
:1014100011F00C0F09D00068C0F3810002280BD135
:101420008D48001F0068400206D42068800715D54B
:10143000E868012809D111E0E868B8B10120C8F8CE
:101440000000FFF7FDFD064605E002E1FFF7F8FDAD
:10145000801B0228C0D820688007F7D5206829693A
:1014600020F0F80040EAC10020600DE0C8F80090CC
:10147000FFF7E6FD064604E0FFF7E2FD801B0228C9
:101480001FD820688007F7D42878000722D5724E2D
:10149000744869696C3671B101210160FFF7D0FDB4
:1014A000074604E0FFF7CCFDC01B022809D83068CE
:1014B0008007F7D50EE0C0F80090FFF7C1FD0746A2
:1014C00005E083E0FFF7BCFDC01B02287ED8306832
:1014D0008007F7D42878400768D5DFF87CA100277B
:1014E0000AF1380ADAF80000C0000BD4DAF800106C
:1014F00041F08051CAF80010DAF80000012700F02E
:1015000080500090584E3068C00510D4306840F4C8
:1015100080703060FFF794FD009005E0FFF790FDCC
:101520000099401A022851D83068C005F6D54A4EB5
:10153000A868683601280FD00528306810D020F040
:1015400001003060306820F004003060A868B8B155
:10155000FFF776FD00900FE0306840F00100F4E7FF
:1015600040F004003060F7E7FFF76AFD0099411A88
:1015700041F28830814264D830688007F4D50EE0AB
:10158000FFF75EFD009007E0FFF75AFD0099411A52
:1015900041F28830814254D830688007F4D42FB1AA
:1015A000DAF8001021F08051CAF80010A869C0B321
:1015B000DBF80010C1F3810102294AD00228484615
:1015C00007D0C8F86000FFF73BFD00E039E00546B2
:1015D0003AE04746C8F86000FFF732FD064604E0EF
:1015E000FFF72EFD801B02282BD820688001F7D43E
:1015F000D5E907010843A96A1C4A490802EB0141E1
:101600006A6A41EA8211084395F82C1040EA0161A8
:101610001148001F016001203866FFF711FD0546E3
:1016200005E014E0FFF70CFD401B022809D82068F4
:101630008001F7D50BE000BFFFF702FD401B022839
:1016400002D90320BDE8F88F20688001F4D400207F
:10165000F8E70120F6E700000838024000380240B1
:1016600000004742800E4742007000400000FFFF2C
:1016700010B5401EB0F1807F01D3012010BD4FF0A6
:10168000E02460610F21601701F031FB0020A061B0
:1016900007202061002010BD7047704710B590F8FA
:1016A0003C20012A22D0012280F83C20CA688C68A4
:1016B00022F4407222434C6822F4806222430C6878
:1016C00022F4006222430C6922F4805222434C69C6
:1016D00022F400522243C969002322F480420A43C3
:1016E00001684A6480F83C30002010BD022010BD23
:1016F00070B590F83C20012A19D0012400F83C4F25
:101700000222427050F83C3C5A689D6822F07006F4
:101710000A684968324325F0800529435A6050F829
:101720003C2C9160447000210170084670BD02207D
:1017300070BD10B5040003D094F83D0010B107E06F
:10174000012010BD002084F83C00204600F00CF879
:10175000022084F83D00211D206800F00BFF0120CD
:1017600084F83D00002010BD10B586B00446142159
:101770006846FEF75DFD28482268002182420AD1B2
:101780002648016841F001010160006800F0010095
:10179000059006B010BD2148001FB2F1804F14D053
:1017A0001F498A42F5D1016841F0040101600068D7
:1017B000002200F00400059011461E20FFF7AEFC49
:1017C0005FF01E00FFF79CFCE3E7026842F00102B5
:1017D0000260006800F001000590104814380268AB
:1017E00042F002020260006800F0020005904FF42F
:1017F000006000900220CDE901010120CDE9031035
:1018000069460848FFF73EFB002211461C20FFF7FF
:1018100085FC1C20D6E7000000000140443802404F
:101820000008004000040240022180F83D100168D9
:101830008A6802F00702062A03D00A6842F0010211
:101840000A60012180F83D10002070470168CA68D5
:1018500042F00102CA600068816801F007010629B0
:1018600003D0016841F00101016000207047016868
:10187000CA6822F00102CA600068016A41F21112CE
:10188000114207D1016A9210114203D1016821F07F
:10189000010101600020704770B5044690F83C00DB
:1018A000012817D0012584F83C50022084F83D001F
:1018B0002068826822F0770222F47F428260086802
:1018C000502830D00DDC20284DD005DC98B31028EE
:1018D0003BD148E0022070BD302844D0402834D1AC
:1018E00039E0602828D0702806D0B0F5805F2CD071
:1018F000B0F5005F29D10AE0CB68D1E90121206869
:1019000000F0A9FE2068816841F0770109E0CB680A
:10191000D1E90121206800F09EFE2068816841F431
:101920008041816011E0CA684968206800F068FF62
:101930005021206807E016E0CA684968206800F076
:10194000B1FF6021206800F090FE84F83D50002037
:1019500084F83C0070BDCA684968206800F050FFF8
:1019600040212068EFE7226801461046EBE7704708
:101970002DE9F041044690F83C000D4601283DD089
:10198000012684F83C60022084F83D00AAB3042AB2
:1019900046D02068082A55D0D5E90027E968036AAF
:1019A00023F480530362D0F81CC0036A2CF4407CFB
:1019B0004CEA07274FF6FF7C27F470470CEA013109
:1019C00039434FF4204723F4204307EA02321A43F5
:1019D000C16102622068C16921F44061C16120686F
:1019E000C169AA6841EA0221C0F81C1084F83D6070
:1019F000002084F83C00BDE8F08101E00220FAE715
:101A0000D5E90012EB68206800F00CFF20688169BE
:101A100021F00C01816120688169AA6811430FE0FF
:101A2000D5E90012EB68206800F04EFF206881695C
:101A300021F44061816120688169AA6841EA02213C
:101A40008161D3E7D5E9002C2F7B016A21F48071F5
:101A50000162C169036A21F0030141EA0C0121F02E
:101A6000F00C39074FF420674CEA116123F420632E
:101A700007EA02221A43C16102622068C16921F0AB
:101A80000C01C1612068C169AA681143ACE710B5B7
:101A9000040003D094F83D0010B107E0012010BD10
:101AA000002084F83C00204600F00CF8022084F866
:101AB0003D00211D206800F05DFD012084F83D00FF
:101AC000002010BD704710B50268044631B10429EA
:101AD00008D008291AD00C2908D11BE0D06840F0A2
:101AE000020002E0D06840F00400D06001222068CB
:101AF00000F0A4FD2068816801F00701062903D0E9
:101B0000016841F001010160002010BDD06840F083
:101B10000800EAE7D06840F01000E6E770B5044638
:101B2000006801694FF00005C943890715D4C168F1
:101B3000C943890711D4E91E01610120207720687B
:101B400080698007204602D0FFF711FF04E000F013
:101B5000C3F8204600F045F9257720680169C9439C
:101B6000490717D4C168C943490713D46FF004016A
:101B70000161022020772068806910F4407F2046B0
:101B800002D0FFF7F4FE04E000F0A6F8204600F0D3
:101B900028F9257720680169C943090716D4C16867
:101BA000C943090712D46FF00801016104202077AE
:101BB0002068C0698007204602D0FFF7D8FE04E005
:101BC00000F08AF8204600F00CF9257720680169BA
:101BD000C943C90617D4C168C943C90613D46FF0F5
:101BE00010010161082020772068C06910F4407F4F
:101BF000204602D0FFF7BBFE04E000F06DF820465F
:101C000000F0EFF8257720680169C943C90708D1BA
:101C1000C168C943C90704D1891E0161204600F08B
:101C200031F920680169C943090609D4C168C9436B
:101C3000090605D46FF0800101612046FFF72CFDF5
:101C400020680169C943490609D4C168C9434906E6
:101C500005D46FF040010161204600F014F92068BE
:101C60000169C94389060BD4C168C943890607D4F1
:101C70006FF0200101612046BDE87040FFF70DBD07
:101C800070BD000010B586B0044614216846FEF70A
:101C9000CFFA0E492068884216D10D48002102680B
:101CA00042F001020260006800F0010005904FF46C
:101CB000807000900220CDE901010120CDE90310E0
:101CC00069460448FFF7DEF806B010BD0000014089
:101CD0003038024000000240704770B5044690F86A
:101CE0003C000D4601280DD0012684F83C600220FE
:101CF00084F83D0042B1042A18D0082A2AD00C2AC0
:101D00004DD139E0022070BD206800F0B7FC20689A
:101D1000816941F0080181612068816921F0040135
:101D20008161206881692A69114311E0206800F00F
:101D3000D5FC2068816941F4006181612068816976
:101D400021F480618161206881692A6941EA022168
:101D5000816124E0206800F0F7FC2068C16941F04F
:101D60000801C1612068C16921F00401C1612068D6
:101D7000C1692A69114311E0206800F019FD20684B
:101D8000C16941F40061C1612068C16921F48061C9
:101D9000C1612068C1692A6941EA0221C16184F8F0
:101DA0003D60002084F83C0070BD10B5040003D0F5
:101DB00094F83D0010B107E0012010BD002084F828
:101DC0003C00204600F00CF8022084F83D00211D64
:101DD000206800F0CFFB012084F83D00002010BDFA
:101DE0007047704710B504460068012200F026FCD9
:101DF0000B492068884202D00A49884203D1416CCD
:101E000041F4004141642068816801F0070106291E
:101E100003D0016841F001010160002010BD000005
:101E2000000001400004014010B504460068002293
:101E300000F004FC114841F2111221689310814214
:101E400002D00F48814209D1086A104206D1086ABF
:101E5000184203D1486C20F4004048642068016AAD
:101E6000114206D1016A194203D1016821F0010132
:101E70000160012084F83D00002010BD00000140F9
:101E800000040140704770477047000070B5026859
:101E900004461068D168536910F00F0F50D003F05A
:101EA000010501F4907635435DD0C20705D0CA051F
:101EB00003D5E26B42F00102E263420705D5DA077F
:101EC00003D0E26B42F00202E263820705D5DA0733
:101ED00003D0E26B42F00402E263020705D5DA07A1
:101EE00003D0E26B42F00802E263E26B002A33D0D7
:101EF000800604D5880602D5204600F016FD20682D
:101F00004069E16BC0F38010090700D428B3204674
:101F100000F0FDFC2068416949061AD5416921F0AD
:101F200040014161606BA0B11B490165606BFEF728
:101F300077FF002810D0606B016DBDE87040084746
:101F4000830610D58B060ED52046BDE8704000F004
:101F5000ECBC2046FFF798FF70BD2046FFF794FFCA
:101F60000020E06370BD030606D50B0604D52046AD
:101F7000BDE8704000F07ABE4006F3D54806F1D5C2
:101F8000D168204621F04001D160202184F8391029
:101F900000F075F870BD0000FF28000870B504005F
:101FA00004D094F83900002510B106E0012070BD7E
:101FB00084F83850204600F023F8242084F83900B3
:101FC0002068C16821F40051C160204600F0F8FC8F
:101FD0002068016921F4904101612068416921F084
:101FE0002A0141612068C16841F40051C160E56384
:101FF000202084F8390084F83A00002070BD0000E9
:1020000010B586B0044614216846FEF711F9184948
:102010002068884229D11748016841F48021016075
:10202000006800F48020059012481038016841F0E3
:10203000080101600068694600F0080005904FF44F
:102040004070009002200190012002900320039034
:10205000072004900848FEF715FF002211462720AC
:10206000FFF75CF82720FFF74BF806B010BD000023
:102070000048004040380240000C02407047704762
:10208000FEE700007FB500241148009401940294FB
:102090000E490394C0E9001484600461047680F85A
:1020A00020400C49C0E90A140125C561C46080F8CC
:1020B00030404561FEF791FD0820CDE900056946F5
:1020C00002940348FEF7E0FC7FBD000000200140C1
:1020D000400000200100000F2DE9F04186B01421DE
:1020E0006846FEF7A5F82B480024016841F004017A
:1020F0000160016801F004010591016841F00201ED
:102100000160016801F002010591016841F00801D8
:102110000160016801F008010591016841F00101C9
:10212000016000681C4F00F00100059000221021A2
:102130003846FEF77FFFDFF864804FF440560022F8
:1021400031464046FEF776FF042000901448CDE962
:10215000010469463846FEF795FE102000900125DF
:10216000CDE90154694638460394FEF78BFE00968C
:10217000CDE90154694640460394FEF783FE0022F0
:1021800011460820FEF7CAFF0820FEF7B9FF06B087
:10219000BDE8F0813038024000080240000C0240E7
:1021A0000000111010B596B000240F9410941194F3
:1021B000129413941C2108A81494FEF739F82021D6
:1021C0006846FEF735F81F481D4901600F21C0E938
:1021D000011440F2E731C0E9031444618461FFF760
:1021E000A8FA4FF480500F900FA91648FFF754FB40
:1021F0001448FFF7DAFD139413A912481494FFF75B
:1022000077FA6020CDE908040A940B940C940D949D
:10221000002208A90B480E94FFF75FFD00944FF4CD
:102220000050CDE9044002940194039469460548A6
:102230000794FFF733FA0348FFF724FD16B010BDEB
:10224000000001408800002010B58AB000241A4820
:1022500004940594069407940894099400940194B6
:1022600002944FF08041039401600721C0E90114FA
:102270004FF6FF71C0E903148461FFF75AFA4FF477
:102280008050049004A90C48FFF706FB0A48FFF7AA
:10229000FEFB089408A908480994FFF729FA0120D1
:1022A000CDE9004002940C22694603480394FFF7ED
:1022B0005FFB0AB010BD0000C800002010B586B05A
:1022C00000241248009401940294039404940E494B
:1022D0000594016041F63F71C0E901146321C0E932
:1022E000031480218161FFF724FA4FF4805000909D
:1022F00069460648FFF7D0FA049404A903480594F8
:10230000FFF7F6F906B010BD0008004008010020F4
:10231000FEE700002DE9F041164D174E041E4FF464
:1023200080514FF400570DD017DD01222846FEF7EB
:1023300081FE002239462846FEF77CFE3068446361
:10234000BDE8F08101222846FEF774FE01223946DD
:102350002846FEF76FFE002009E000222846FEF71F
:1023600069FE012239462846FEF764FE6042316864
:102370004863E5E7000C0240880000207047704782
:1023800010B5084C012210212046FEF753FE0A200A
:10239000FEF758FD20460022BDE810401021FEF750
:1023A00049BE0000000802407047000010B500243C
:1023B0001F48FEF7BFFC4FF47A711D48FEF768FC1A
:1023C0001B48FEF707FC40F6FF71B0FBF1F000EE92
:1023D000100ADFED180AB8EE400A20EE200A10EECF
:1023E000100AA0F17E50B0F5400F12D8F7EE000AA7
:1023F0009FED111A30EE600AF6EE000A60EE200A38
:10240000B2EE040A00EE810ABDEEC00A10EE104AD8
:102410000CE010EE100AB0F17E5F01DA0A2405E04C
:1024200010EE100A0549884200DD6424A0B210BDF8
:1024300040000020333353400000B44200004040CD
:10244000FEF704BE10B592B030216846FDF7F0FEED
:1024500014210CA8FDF7ECFE1A480021026842F096
:1024600080520260006800F08050119016480268A7
:1024700042F4804202600068022400F4804011901F
:102480000120039010200490009406940820CDE9C8
:1024900007104020CDE9090404200B906846FEF7A0
:1024A00059FF0F20CDE90C0490200E904FF4A0505E
:1024B0000F90E002109000210CA8FEF761FE12B010
:1024C00010BD000040380240007000401048016814
:1024D00041F4700101600F48016841F001010160A1
:1024E0000C4A00210832116002680B4B1A4002604E
:1024F000031D0A4A1A60026822F48022026005481D
:102500000C300160024958068039086070470000AD
:1025100088ED00E000380240FFFFF6FE1030002496
:1025200010B50B48FFF7FAFA0A490868401C086022
:1025300009490968814209D10849002009684863AE
:102540000146BDE810400548FFF76EBC10BD000015
:10255000C80000201800002014000020880000207F
:1025600010B50348FFF7DAFABDE81040FEF766BA87
:1025700008010020F0B50268254C264D264E274F55
:10258000274B4FF0804CA04209D0604507D0A842AD
:1025900005D0B04203D0B84201D0984204D122F015
:1025A000700E4A6842EA0E02A0421BD0604519D064
:1025B000A84217D0B04215D0B84213D0984211D0DB
:1025C000184DA8420ED0184DA8420BD0174DA84266
:1025D00008D0174DA84205D0164DA84202D0164D7E
:1025E000A84203D122F44075CA682A434D6922F0FB
:1025F00080022A4302608A68C2620A688262A0423C
:1026000001D0984201D10969016301214161F0BD06
:10261000000001400004004000080040000C0040A1
:1026200000040140004001400044014000480140D6
:1026300000180040001C00400020004010B501F0D0
:102640001F030121046A99408C430462016A9A4085
:102650001143016210BD10B5846842EA032224F4DC
:102660007F440A432243826010BD826822F07002D8
:102670000A4342F00701816070470000F0B5026A2A
:1026800022F001020262036A42688469124E24F059
:1026900073050C682C4323F002058B682B430D4D0A
:1026A000A84201D0B04205D123F00807CB683B43D4
:1026B00023F00403A84201D0B04205D14D6922F4B1
:1026C000407215438A692A434260846149684163C4
:1026D0000362F0BD0000014000040140F0B5026A51
:1026E00022F010020262026A436884690D6824F4D1
:1026F000E64444EA05248D6822F0200242EA0512ED
:102700000F4D104EA84201D0B04206D1CF6822F042
:10271000800242EA071222F04002A84201D0B042F1
:1027200007D14D6923F4406343EA85038D6943EA89
:10273000850343608461496881630262F0BD0000E3
:102740000000014000040140F0B5026A22F48072EA
:102750000262026A4368C46922F4007224F07305BD
:102760000C68124E2C438D6842EA05220E4DA84299
:1027700001D0B04206D1CF6822F4006242EA0722BB
:1027800022F48062A84201D0B04207D14D6923F4FF
:10279000405343EA05138D6943EA05134360C4615E
:1027A0004968C1630262F0BD0000014000040140BD
:1027B00030B5026A22F480520262046A4268C36938
:1027C0000D6823F4E64343EA05238D6824F400549E
:1027D00044EA0534084DA84202D0084DA84204D16D
:1027E0004D6922F4804242EA85124260C361496821
:1027F0000164046230BD000000000140000401409B
:1028000010B5036A046A24F001040462846924F0A8
:10281000F00444EA021423F00A020A4384610262CB
:1028200010BD000070B5046A24F0010404628469DC
:10283000056A154EB04214D0B0F1804F11D0134E3E
:10284000B0420ED0124EB0420BD0124EB04208D061
:10285000114EB04205D0114EB04202D0104EB042DF
:1028600003D124F00304144301E044F001041A07E7
:1028700024F0F00444EA126225F00A0301F00A0190
:1028800019438261016270BD0000014000040040F4
:1028900000080040000C00400004014000400140DE
:1028A0000018004010B5036A23F010030362836927
:1028B000046A23F4704343EA023224F0A00343EA9B
:1028C00001118261016210BD30B5046A24F0100468
:1028D00004628469056A24F4407444EA022222F402
:1028E00070444FF6FF7202EA03322243A02425F01F
:1028F000A00304EA011119438261016230BD10B5E1
:10290000806B0021C185C184FFF7BEFA10BD01684C
:10291000CA6822F49072CA6001684A6922F0010212
:102920004A61202180F83A10704710B590F83A10AB
:10293000222901D0022010BD8168B1F5805F11D03D
:102940000169002901681FD0496801F07F03816A8D
:102950004A1C82620B70C18D491E0904090CC18595
:1029600018D02BE00269816A002A0268526805D0FB
:10297000D2B20A80816A491C8162ECE7C2F3080284
:102980000A80816A891CF7E74A68816A4B1C836266
:102990000A70E0E70168CA6822F02002CA60016894
:1029A000CA6822F48072CA6001684A6922F0010292
:1029B0004A61202180F83A10FFF760FB002010BD2B
:1029C0002DE9F041044600680169E26821F44051B4
:1029D000114301612169A068E269084361691143FB
:1029E00022680843D16849F20C6399430143D160DE
:1029F00020684169A26921F4407111434161E26993
:102A00006425B2F5004F9748974922684FF0320885
:102A10003FD08A4201D082427CD1FEF759FC00EBC4
:102A2000C00101EB001061688900B0FBF1F6FEF710
:102A30004FFC00EBC00101EB001061688900B0FBA6
:102A4000F1F0B0FBF5F06FF01801484306EB8001A0
:102A500008EB0110B0FBF5F000F0F006FEF738FCD3
:102A600000EBC00101EB001061688900B0FBF1F0E0
:102A7000B0FBF5F006EB0016FEF72AFC00EBC001F8
:102A800001EB001061688900B0FBF1F7FEF720FC54
:102A9000D2E08A4201D082423DD1FEF719FC00EB20
:102AA000C00101EB001061684900B0FBF1F0B0FB20
:102AB000F5F00601FEF70CFC00EBC00101EB001085
:102AC00061684900B0FBF1F7FEF702FC00EBC001C2
:102AD00001EB001061684900B0FBF1F0B0FBF5F0CC
:102AE0006FF01801484307EB800108EBC100B0FB11
:102AF000F5F000F0F80006EB4006FEF7E9FB00EB0E
:102B0000C00101EB001061684900B0FBF1F7FEF76E
:102B1000DFFB3CE055E0FEF7CBFB00EBC00101EB37
:102B2000001061684900B0FBF1F0B0FBF5F0060160
:102B3000FEF7BEFB00EBC00101EB0010616849002D
:102B4000B0FBF1F7FEF7B4FB00EBC00101EB0010A6
:102B500061684900B0FBF1F0B0FBF5F06FF01801CF
:102B6000484307EB800108EBC100B0FBF5F000F033
:102B7000F80006EB4006FEF79BFB00EBC00101EB03
:102B8000001061684900B0FBF1F7FEF791FB00EB24
:102B9000C00101EB001061684900B0FBF1F0B0FB2F
:102BA000F5F06FF01801484307EB800108EBC10016
:102BB000B0FBF5F000F00700216830448860BDE804
:102BC000F081FEF775FB00EBC00101EB00106168BE
:102BD0008900B0FBF1F6FEF76BFB00EBC00101EBE7
:102BE000001061688900B0FBF1F0B0FBF5F06FF008
:102BF0001801484306EB800108EB0110B0FBF5F02B
:102C000000F0F006FEF754FB00EBC00101EB0010F2
:102C100061688900B0FBF1F0B0FBF5F006EB00163F
:102C2000FEF746FB00EBC00101EB00106168890074
:102C3000B0FBF1F7FEF73CFB00EBC00101EB00102D
:102C400061688900B0FBF1F0B0FBF5F06FF018019E
:102C5000484307EB800108EB0110B0FBF5F000F0F2
:102C60000F00A9E7001401400010014090F839104E
:102C7000212901D0022070478168B1F5805F016A87
:102C80000BD04A1C0262026809785160C18C491E4F
:102C90000904090CC1840ED017E009880268C1F349
:102CA0000801516001690029016A02D0491C0162D2
:102CB000ECE7891CFBE70168CA6822F08002CA6061
:102CC0000068C16841F04001C16000207047000009
:102CD00010B50548FFF7DAF8034800684068BDE81A
:102CE0001040C0B2FDF72CBE48010020FEE70907E6
:102CF000090E002804DB00F1E02080F80014704782
:102D000000F00F0000F1E02080F8141D704702E091
:102D100008C8121F08C1002AFAD170477047002066
:102D200001E001C1121F002AFBD17047FEF796F99E
:102D3000FFF788FBFFF7D0F9FFF7A4F9FFF732FAA6
:102D40001C4C1B48002520604FF4E130C4E901050C
:102D50000C20E560C4E90450A5612046E561FFF759
:102D60001DF9FFF771FAFFF7A9FAA4F1C000FEF709
:102D70005BFD0021A4F1C000FFF756F8A4F180002C
:102D8000FEF752FD0C21A4F18000FEF79CFE2068A6
:102D9000C16841F02001C160074C0020216809B1E1
:102DA00001202560FDF70EFE6420FEF74BF8F4E7E6
:102DB00000480040480100201C00002000000000E6
:102DC00000000000010203040607080900000000DB
:102DD00001020304DDDDDDDDDCBBBBDDDDDDDDDDD2
:102DE000DDDDDDDD98888888888888887777777743
:102DF000778888888555555666666666666666660F
:102E000066688888833333322222222222222222B9
:102E10002228888D342E0008000000203400000095
:102E20000E2D0008682E0008340000205405000014
:102E30001E2D00080000000000000000000000003F
:102E40000000000000000000000000000000000082
:102E50000000000000000000010000001000000061
:082E6000000000000024F40052
:040000050800018965
:00000001FF
